{
  "contractName": "Collection",
  "abi": [
    {
      "inputs": [
        {
          "internalType": "uint256",
          "name": "_minttFee",
          "type": "uint256"
        }
      ],
      "stateMutability": "nonpayable",
      "type": "constructor"
    },
    {
      "anonymous": false,
      "inputs": [
        {
          "indexed": true,
          "internalType": "address",
          "name": "owner",
          "type": "address"
        },
        {
          "indexed": true,
          "internalType": "address",
          "name": "approved",
          "type": "address"
        },
        {
          "indexed": true,
          "internalType": "uint256",
          "name": "tokenId",
          "type": "uint256"
        }
      ],
      "name": "Approval",
      "type": "event"
    },
    {
      "anonymous": false,
      "inputs": [
        {
          "indexed": true,
          "internalType": "address",
          "name": "owner",
          "type": "address"
        },
        {
          "indexed": true,
          "internalType": "address",
          "name": "operator",
          "type": "address"
        },
        {
          "indexed": false,
          "internalType": "bool",
          "name": "approved",
          "type": "bool"
        }
      ],
      "name": "ApprovalForAll",
      "type": "event"
    },
    {
      "anonymous": false,
      "inputs": [
        {
          "indexed": false,
          "internalType": "uint256",
          "name": "_fromTokenId",
          "type": "uint256"
        },
        {
          "indexed": false,
          "internalType": "uint256",
          "name": "_toTokenId",
          "type": "uint256"
        }
      ],
      "name": "BatchMetadataUpdate",
      "type": "event"
    },
    {
      "anonymous": false,
      "inputs": [
        {
          "indexed": false,
          "internalType": "uint256",
          "name": "_tokenId",
          "type": "uint256"
        }
      ],
      "name": "MetadataUpdate",
      "type": "event"
    },
    {
      "anonymous": false,
      "inputs": [
        {
          "indexed": true,
          "internalType": "address",
          "name": "minter",
          "type": "address"
        },
        {
          "indexed": false,
          "internalType": "uint256",
          "name": "tokenId",
          "type": "uint256"
        }
      ],
      "name": "NFTMinted",
      "type": "event"
    },
    {
      "anonymous": false,
      "inputs": [
        {
          "indexed": true,
          "internalType": "address",
          "name": "from",
          "type": "address"
        },
        {
          "indexed": true,
          "internalType": "address",
          "name": "to",
          "type": "address"
        },
        {
          "indexed": true,
          "internalType": "uint256",
          "name": "tokenId",
          "type": "uint256"
        }
      ],
      "name": "Transfer",
      "type": "event"
    },
    {
      "inputs": [
        {
          "internalType": "address",
          "name": "to",
          "type": "address"
        },
        {
          "internalType": "uint256",
          "name": "tokenId",
          "type": "uint256"
        }
      ],
      "name": "approve",
      "outputs": [],
      "stateMutability": "nonpayable",
      "type": "function"
    },
    {
      "inputs": [
        {
          "internalType": "address",
          "name": "owner",
          "type": "address"
        }
      ],
      "name": "balanceOf",
      "outputs": [
        {
          "internalType": "uint256",
          "name": "",
          "type": "uint256"
        }
      ],
      "stateMutability": "view",
      "type": "function",
      "constant": true
    },
    {
      "inputs": [
        {
          "internalType": "uint256",
          "name": "tokenId",
          "type": "uint256"
        }
      ],
      "name": "getApproved",
      "outputs": [
        {
          "internalType": "address",
          "name": "",
          "type": "address"
        }
      ],
      "stateMutability": "view",
      "type": "function",
      "constant": true
    },
    {
      "inputs": [
        {
          "internalType": "address",
          "name": "owner",
          "type": "address"
        },
        {
          "internalType": "address",
          "name": "operator",
          "type": "address"
        }
      ],
      "name": "isApprovedForAll",
      "outputs": [
        {
          "internalType": "bool",
          "name": "",
          "type": "bool"
        }
      ],
      "stateMutability": "view",
      "type": "function",
      "constant": true
    },
    {
      "inputs": [],
      "name": "name",
      "outputs": [
        {
          "internalType": "string",
          "name": "",
          "type": "string"
        }
      ],
      "stateMutability": "view",
      "type": "function",
      "constant": true
    },
    {
      "inputs": [
        {
          "internalType": "uint256",
          "name": "tokenId",
          "type": "uint256"
        }
      ],
      "name": "ownerOf",
      "outputs": [
        {
          "internalType": "address",
          "name": "",
          "type": "address"
        }
      ],
      "stateMutability": "view",
      "type": "function",
      "constant": true
    },
    {
      "inputs": [
        {
          "internalType": "address",
          "name": "from",
          "type": "address"
        },
        {
          "internalType": "address",
          "name": "to",
          "type": "address"
        },
        {
          "internalType": "uint256",
          "name": "tokenId",
          "type": "uint256"
        }
      ],
      "name": "safeTransferFrom",
      "outputs": [],
      "stateMutability": "nonpayable",
      "type": "function"
    },
    {
      "inputs": [
        {
          "internalType": "address",
          "name": "from",
          "type": "address"
        },
        {
          "internalType": "address",
          "name": "to",
          "type": "address"
        },
        {
          "internalType": "uint256",
          "name": "tokenId",
          "type": "uint256"
        },
        {
          "internalType": "bytes",
          "name": "data",
          "type": "bytes"
        }
      ],
      "name": "safeTransferFrom",
      "outputs": [],
      "stateMutability": "nonpayable",
      "type": "function"
    },
    {
      "inputs": [
        {
          "internalType": "address",
          "name": "operator",
          "type": "address"
        },
        {
          "internalType": "bool",
          "name": "approved",
          "type": "bool"
        }
      ],
      "name": "setApprovalForAll",
      "outputs": [],
      "stateMutability": "nonpayable",
      "type": "function"
    },
    {
      "inputs": [
        {
          "internalType": "bytes4",
          "name": "interfaceId",
          "type": "bytes4"
        }
      ],
      "name": "supportsInterface",
      "outputs": [
        {
          "internalType": "bool",
          "name": "",
          "type": "bool"
        }
      ],
      "stateMutability": "view",
      "type": "function",
      "constant": true
    },
    {
      "inputs": [],
      "name": "symbol",
      "outputs": [
        {
          "internalType": "string",
          "name": "",
          "type": "string"
        }
      ],
      "stateMutability": "view",
      "type": "function",
      "constant": true
    },
    {
      "inputs": [
        {
          "internalType": "uint256",
          "name": "tokenId",
          "type": "uint256"
        }
      ],
      "name": "tokenURI",
      "outputs": [
        {
          "internalType": "string",
          "name": "",
          "type": "string"
        }
      ],
      "stateMutability": "view",
      "type": "function",
      "constant": true
    },
    {
      "inputs": [
        {
          "internalType": "address",
          "name": "from",
          "type": "address"
        },
        {
          "internalType": "address",
          "name": "to",
          "type": "address"
        },
        {
          "internalType": "uint256",
          "name": "tokenId",
          "type": "uint256"
        }
      ],
      "name": "transferFrom",
      "outputs": [],
      "stateMutability": "nonpayable",
      "type": "function"
    },
    {
      "inputs": [
        {
          "internalType": "string",
          "name": "tokenURI",
          "type": "string"
        }
      ],
      "name": "mint",
      "outputs": [
        {
          "internalType": "uint256",
          "name": "",
          "type": "uint256"
        }
      ],
      "stateMutability": "payable",
      "type": "function",
      "payable": true
    },
    {
      "inputs": [],
      "name": "getMintFee",
      "outputs": [
        {
          "internalType": "uint256",
          "name": "",
          "type": "uint256"
        }
      ],
      "stateMutability": "view",
      "type": "function",
      "constant": true
    },
    {
      "inputs": [],
      "name": "getTokenCounter",
      "outputs": [
        {
          "internalType": "uint256",
          "name": "",
          "type": "uint256"
        }
      ],
      "stateMutability": "view",
      "type": "function",
      "constant": true
    },
    {
      "inputs": [
        {
          "internalType": "address",
          "name": "_market",
          "type": "address"
        },
        {
          "internalType": "uint256",
          "name": "_tokenId",
          "type": "uint256"
        }
      ],
      "name": "approveNFT",
      "outputs": [],
      "stateMutability": "nonpayable",
      "type": "function"
    }
  ],
  "bytecode": "0x60a06040523480156200001157600080fd5b5060405162002ecc38038062002ecc8339818101604052810190620000379190620001d6565b6040518060400160405280600681526020017f4d79204e465400000000000000000000000000000000000000000000000000008152506040518060400160405280600381526020017f4d4e4600000000000000000000000000000000000000000000000000000000008152508160009080519060200190620000bb929190620000e6565b508060019080519060200190620000d4929190620000e6565b5050508060808181525050506200026d565b828054620000f49062000237565b90600052602060002090601f01602090048101928262000118576000855562000164565b82601f106200013357805160ff191683800117855562000164565b8280016001018555821562000164579182015b828111156200016357825182559160200191906001019062000146565b5b50905062000173919062000177565b5090565b5b808211156200019257600081600090555060010162000178565b5090565b600080fd5b6000819050919050565b620001b0816200019b565b8114620001bc57600080fd5b50565b600081519050620001d081620001a5565b92915050565b600060208284031215620001ef57620001ee62000196565b5b6000620001ff84828501620001bf565b91505092915050565b7f4e487b7100000000000000000000000000000000000000000000000000000000600052602260045260246000fd5b600060028204905060018216806200025057607f821691505b6020821081141562000267576200026662000208565b5b50919050565b608051612c3c62000290600039600081816108680152610abb0152612c3c6000f3fe6080604052600436106100fe5760003560e01c806370a0823111610095578063a22cb46511610064578063a22cb46514610347578063b88d4fde14610370578063c87b56dd14610399578063d85d3d27146103d6578063e985e9c514610406576100fe565b806370a082311461028b5780637a5caab3146102c857806395d89b41146102f35780639600dd831461031e576100fe565b806323b872dd116100d157806323b872dd146101d157806342842e0e146101fa5780636352211e146102235780636e02007d14610260576100fe565b806301ffc9a71461010357806306fdde0314610140578063081812fc1461016b578063095ea7b3146101a8575b600080fd5b34801561010f57600080fd5b5061012a60048036038101906101259190611d46565b610443565b6040516101379190611d8e565b60405180910390f35b34801561014c57600080fd5b506101556104a4565b6040516101629190611e42565b60405180910390f35b34801561017757600080fd5b50610192600480360381019061018d9190611e9a565b610536565b60405161019f9190611f08565b60405180910390f35b3480156101b457600080fd5b506101cf60048036038101906101ca9190611f4f565b61057c565b005b3480156101dd57600080fd5b506101f860048036038101906101f39190611f8f565b610694565b005b34801561020657600080fd5b50610221600480360381019061021c9190611f8f565b6106f4565b005b34801561022f57600080fd5b5061024a60048036038101906102459190611e9a565b610714565b6040516102579190611f08565b60405180910390f35b34801561026c57600080fd5b5061027561079b565b6040516102829190611ff1565b60405180910390f35b34801561029757600080fd5b506102b260048036038101906102ad919061200c565b6107ac565b6040516102bf9190611ff1565b60405180910390f35b3480156102d457600080fd5b506102dd610864565b6040516102ea9190611ff1565b60405180910390f35b3480156102ff57600080fd5b5061030861088c565b6040516103159190611e42565b60405180910390f35b34801561032a57600080fd5b5061034560048036038101906103409190611f4f565b61091e565b005b34801561035357600080fd5b5061036e60048036038101906103699190612065565b61092c565b005b34801561037c57600080fd5b50610397600480360381019061039291906121da565b610942565b005b3480156103a557600080fd5b506103c060048036038101906103bb9190611e9a565b6109a4565b6040516103cd9190611e42565b60405180910390f35b6103f060048036038101906103eb91906122fe565b610ab7565b6040516103fd9190611ff1565b60405180910390f35b34801561041257600080fd5b5061042d60048036038101906104289190612347565b610b9f565b60405161043a9190611d8e565b60405180910390f35b6000634906490660e01b7bffffffffffffffffffffffffffffffffffffffffffffffffffffffff1916827bffffffffffffffffffffffffffffffffffffffffffffffffffffffff1916148061049d575061049c82610c33565b5b9050919050565b6060600080546104b3906123b6565b80601f01602080910402602001604051908101604052809291908181526020018280546104df906123b6565b801561052c5780601f106105015761010080835404028352916020019161052c565b820191906000526020600020905b81548152906001019060200180831161050f57829003601f168201915b5050505050905090565b600061054182610d15565b6004600083815260200190815260200160002060009054906101000a900473ffffffffffffffffffffffffffffffffffffffff169050919050565b600061058782610714565b90508073ffffffffffffffffffffffffffffffffffffffff168373ffffffffffffffffffffffffffffffffffffffff1614156105f8576040517f08c379a00000000000000000000000000000000000000000000000000000000081526004016105ef9061245a565b60405180910390fd5b8073ffffffffffffffffffffffffffffffffffffffff16610617610d60565b73ffffffffffffffffffffffffffffffffffffffff161480610646575061064581610640610d60565b610b9f565b5b610685576040517f08c379a000000000000000000000000000000000000000000000000000000000815260040161067c906124ec565b60405180910390fd5b61068f8383610d68565b505050565b6106a561069f610d60565b82610e21565b6106e4576040517f08c379a00000000000000000000000000000000000000000000000000000000081526004016106db9061257e565b60405180910390fd5b6106ef838383610eb6565b505050565b61070f83838360405180602001604052806000815250610942565b505050565b600080610720836111b0565b9050600073ffffffffffffffffffffffffffffffffffffffff168173ffffffffffffffffffffffffffffffffffffffff161415610792576040517f08c379a0000000000000000000000000000000000000000000000000000000008152600401610789906125ea565b60405180910390fd5b80915050919050565b60006107a760076111ed565b905090565b60008073ffffffffffffffffffffffffffffffffffffffff168273ffffffffffffffffffffffffffffffffffffffff16141561081d576040517f08c379a00000000000000000000000000000000000000000000000000000000081526004016108149061267c565b60405180910390fd5b600360008373ffffffffffffffffffffffffffffffffffffffff1673ffffffffffffffffffffffffffffffffffffffff168152602001908152602001600020549050919050565b60007f0000000000000000000000000000000000000000000000000000000000000000905090565b60606001805461089b906123b6565b80601f01602080910402602001604051908101604052809291908181526020018280546108c7906123b6565b80156109145780601f106108e957610100808354040283529160200191610914565b820191906000526020600020905b8154815290600101906020018083116108f757829003601f168201915b5050505050905090565b6109288282610d68565b5050565b61093e610937610d60565b83836111fb565b5050565b61095361094d610d60565b83610e21565b610992576040517f08c379a00000000000000000000000000000000000000000000000000000000081526004016109899061257e565b60405180910390fd5b61099e84848484611368565b50505050565b60606109af82610d15565b60006006600084815260200190815260200160002080546109cf906123b6565b80601f01602080910402602001604051908101604052809291908181526020018280546109fb906123b6565b8015610a485780601f10610a1d57610100808354040283529160200191610a48565b820191906000526020600020905b815481529060010190602001808311610a2b57829003601f168201915b505050505090506000610a596113c4565b9050600081511415610a6f578192505050610ab2565b600082511115610aa4578082604051602001610a8c9291906126d8565b60405160208183030381529060405292505050610ab2565b610aad846113db565b925050505b919050565b60007f0000000000000000000000000000000000000000000000000000000000000000341015610b1c576040517f08c379a0000000000000000000000000000000000000000000000000000000008152600401610b1390612748565b60405180910390fd5b610b266007611443565b6000610b3260076111ed565b9050610b3e3382611459565b610b488184611477565b3373ffffffffffffffffffffffffffffffffffffffff167f4cc0a9c4a99ddc700de1af2c9f916a7cbfdb71f14801ccff94061ad1ef8a804082604051610b8e9190611ff1565b60405180910390a280915050919050565b6000600560008473ffffffffffffffffffffffffffffffffffffffff1673ffffffffffffffffffffffffffffffffffffffff16815260200190815260200160002060008373ffffffffffffffffffffffffffffffffffffffff1673ffffffffffffffffffffffffffffffffffffffff16815260200190815260200160002060009054906101000a900460ff16905092915050565b60007f80ac58cd000000000000000000000000000000000000000000000000000000007bffffffffffffffffffffffffffffffffffffffffffffffffffffffff1916827bffffffffffffffffffffffffffffffffffffffffffffffffffffffff19161480610cfe57507f5b5e139f000000000000000000000000000000000000000000000000000000007bffffffffffffffffffffffffffffffffffffffffffffffffffffffff1916827bffffffffffffffffffffffffffffffffffffffffffffffffffffffff1916145b80610d0e5750610d0d82611522565b5b9050919050565b610d1e8161158c565b610d5d576040517f08c379a0000000000000000000000000000000000000000000000000000000008152600401610d54906125ea565b60405180910390fd5b50565b600033905090565b816004600083815260200190815260200160002060006101000a81548173ffffffffffffffffffffffffffffffffffffffff021916908373ffffffffffffffffffffffffffffffffffffffff160217905550808273ffffffffffffffffffffffffffffffffffffffff16610ddb83610714565b73ffffffffffffffffffffffffffffffffffffffff167f8c5be1e5ebec7d5bd14f71427d1e84f3dd0314c0f7b2291e5b200ac8c7c3b92560405160405180910390a45050565b600080610e2d83610714565b90508073ffffffffffffffffffffffffffffffffffffffff168473ffffffffffffffffffffffffffffffffffffffff161480610e6f5750610e6e8185610b9f565b5b80610ead57508373ffffffffffffffffffffffffffffffffffffffff16610e9584610536565b73ffffffffffffffffffffffffffffffffffffffff16145b91505092915050565b8273ffffffffffffffffffffffffffffffffffffffff16610ed682610714565b73ffffffffffffffffffffffffffffffffffffffff1614610f2c576040517f08c379a0000000000000000000000000000000000000000000000000000000008152600401610f23906127da565b60405180910390fd5b600073ffffffffffffffffffffffffffffffffffffffff168273ffffffffffffffffffffffffffffffffffffffff161415610f9c576040517f08c379a0000000000000000000000000000000000000000000000000000000008152600401610f939061286c565b60405180910390fd5b610fa983838360016115cd565b8273ffffffffffffffffffffffffffffffffffffffff16610fc982610714565b73ffffffffffffffffffffffffffffffffffffffff161461101f576040517f08c379a0000000000000000000000000000000000000000000000000000000008152600401611016906127da565b60405180910390fd5b6004600082815260200190815260200160002060006101000a81549073ffffffffffffffffffffffffffffffffffffffff02191690556001600360008573ffffffffffffffffffffffffffffffffffffffff1673ffffffffffffffffffffffffffffffffffffffff168152602001908152602001600020600082825403925050819055506001600360008473ffffffffffffffffffffffffffffffffffffffff1673ffffffffffffffffffffffffffffffffffffffff16815260200190815260200160002060008282540192505081905550816002600083815260200190815260200160002060006101000a81548173ffffffffffffffffffffffffffffffffffffffff021916908373ffffffffffffffffffffffffffffffffffffffff160217905550808273ffffffffffffffffffffffffffffffffffffffff168473ffffffffffffffffffffffffffffffffffffffff167fddf252ad1be2c89b69c2b068fc378daa952ba7f163c4a11628f55a4df523b3ef60405160405180910390a46111ab83838360016115d3565b505050565b60006002600083815260200190815260200160002060009054906101000a900473ffffffffffffffffffffffffffffffffffffffff169050919050565b600081600001549050919050565b8173ffffffffffffffffffffffffffffffffffffffff168373ffffffffffffffffffffffffffffffffffffffff16141561126a576040517f08c379a0000000000000000000000000000000000000000000000000000000008152600401611261906128d8565b60405180910390fd5b80600560008573ffffffffffffffffffffffffffffffffffffffff1673ffffffffffffffffffffffffffffffffffffffff16815260200190815260200160002060008473ffffffffffffffffffffffffffffffffffffffff1673ffffffffffffffffffffffffffffffffffffffff16815260200190815260200160002060006101000a81548160ff0219169083151502179055508173ffffffffffffffffffffffffffffffffffffffff168373ffffffffffffffffffffffffffffffffffffffff167f17307eab39ab6107e8899845ad3d59bd9653f200f220920489ca2b5937696c318360405161135b9190611d8e565b60405180910390a3505050565b611373848484610eb6565b61137f848484846115d9565b6113be576040517f08c379a00000000000000000000000000000000000000000000000000000000081526004016113b59061296a565b60405180910390fd5b50505050565b606060405180602001604052806000815250905090565b60606113e682610d15565b60006113f06113c4565b90506000815111611410576040518060200160405280600081525061143b565b8061141a84611770565b60405160200161142b9291906126d8565b6040516020818303038152906040525b915050919050565b6001816000016000828254019250508190555050565b611473828260405180602001604052806000815250611848565b5050565b6114808261158c565b6114bf576040517f08c379a00000000000000000000000000000000000000000000000000000000081526004016114b6906129fc565b60405180910390fd5b806006600084815260200190815260200160002090805190602001906114e6929190611c37565b507ff8e1a15aba9398e019f0b49df1a4fde98ee17ae345cb5f6b5e2c27f5033e8ce7826040516115169190611ff1565b60405180910390a15050565b60007f01ffc9a7000000000000000000000000000000000000000000000000000000007bffffffffffffffffffffffffffffffffffffffffffffffffffffffff1916827bffffffffffffffffffffffffffffffffffffffffffffffffffffffff1916149050919050565b60008073ffffffffffffffffffffffffffffffffffffffff166115ae836111b0565b73ffffffffffffffffffffffffffffffffffffffff1614159050919050565b50505050565b50505050565b60006115fa8473ffffffffffffffffffffffffffffffffffffffff166118a3565b15611763578373ffffffffffffffffffffffffffffffffffffffff1663150b7a02611623610d60565b8786866040518563ffffffff1660e01b81526004016116459493929190612a71565b602060405180830381600087803b15801561165f57600080fd5b505af192505050801561169057506040513d601f19601f8201168201806040525081019061168d9190612ad2565b60015b611713573d80600081146116c0576040519150601f19603f3d011682016040523d82523d6000602084013e6116c5565b606091505b5060008151141561170b576040517f08c379a00000000000000000000000000000000000000000000000000000000081526004016117029061296a565b60405180910390fd5b805181602001fd5b63150b7a0260e01b7bffffffffffffffffffffffffffffffffffffffffffffffffffffffff1916817bffffffffffffffffffffffffffffffffffffffffffffffffffffffff191614915050611768565b600190505b949350505050565b60606000600161177f846118c6565b01905060008167ffffffffffffffff81111561179e5761179d6120af565b5b6040519080825280601f01601f1916602001820160405280156117d05781602001600182028036833780820191505090505b509050600082602001820190505b60011561183d578080600190039150507f3031323334353637383961626364656600000000000000000000000000000000600a86061a8153600a858161182757611826612aff565b5b04945060008514156118385761183d565b6117de565b819350505050919050565b6118528383611a19565b61185f60008484846115d9565b61189e576040517f08c379a00000000000000000000000000000000000000000000000000000000081526004016118959061296a565b60405180910390fd5b505050565b6000808273ffffffffffffffffffffffffffffffffffffffff163b119050919050565b600080600090507a184f03e93ff9f4daa797ed6e38ed64bf6a1f0100000000000000008310611924577a184f03e93ff9f4daa797ed6e38ed64bf6a1f010000000000000000838161191a57611919612aff565b5b0492506040810190505b6d04ee2d6d415b85acef81000000008310611961576d04ee2d6d415b85acef8100000000838161195757611956612aff565b5b0492506020810190505b662386f26fc10000831061199057662386f26fc10000838161198657611985612aff565b5b0492506010810190505b6305f5e10083106119b9576305f5e10083816119af576119ae612aff565b5b0492506008810190505b61271083106119de5761271083816119d4576119d3612aff565b5b0492506004810190505b60648310611a0157606483816119f7576119f6612aff565b5b0492506002810190505b600a8310611a10576001810190505b80915050919050565b600073ffffffffffffffffffffffffffffffffffffffff168273ffffffffffffffffffffffffffffffffffffffff161415611a89576040517f08c379a0000000000000000000000000000000000000000000000000000000008152600401611a8090612b7a565b60405180910390fd5b611a928161158c565b15611ad2576040517f08c379a0000000000000000000000000000000000000000000000000000000008152600401611ac990612be6565b60405180910390fd5b611ae06000838360016115cd565b611ae98161158c565b15611b29576040517f08c379a0000000000000000000000000000000000000000000000000000000008152600401611b2090612be6565b60405180910390fd5b6001600360008473ffffffffffffffffffffffffffffffffffffffff1673ffffffffffffffffffffffffffffffffffffffff16815260200190815260200160002060008282540192505081905550816002600083815260200190815260200160002060006101000a81548173ffffffffffffffffffffffffffffffffffffffff021916908373ffffffffffffffffffffffffffffffffffffffff160217905550808273ffffffffffffffffffffffffffffffffffffffff16600073ffffffffffffffffffffffffffffffffffffffff167fddf252ad1be2c89b69c2b068fc378daa952ba7f163c4a11628f55a4df523b3ef60405160405180910390a4611c336000838360016115d3565b5050565b828054611c43906123b6565b90600052602060002090601f016020900481019282611c655760008555611cac565b82601f10611c7e57805160ff1916838001178555611cac565b82800160010185558215611cac579182015b82811115611cab578251825591602001919060010190611c90565b5b509050611cb99190611cbd565b5090565b5b80821115611cd6576000816000905550600101611cbe565b5090565b6000604051905090565b600080fd5b600080fd5b60007fffffffff0000000000000000000000000000000000000000000000000000000082169050919050565b611d2381611cee565b8114611d2e57600080fd5b50565b600081359050611d4081611d1a565b92915050565b600060208284031215611d5c57611d5b611ce4565b5b6000611d6a84828501611d31565b91505092915050565b60008115159050919050565b611d8881611d73565b82525050565b6000602082019050611da36000830184611d7f565b92915050565b600081519050919050565b600082825260208201905092915050565b60005b83811015611de3578082015181840152602081019050611dc8565b83811115611df2576000848401525b50505050565b6000601f19601f8301169050919050565b6000611e1482611da9565b611e1e8185611db4565b9350611e2e818560208601611dc5565b611e3781611df8565b840191505092915050565b60006020820190508181036000830152611e5c8184611e09565b905092915050565b6000819050919050565b611e7781611e64565b8114611e8257600080fd5b50565b600081359050611e9481611e6e565b92915050565b600060208284031215611eb057611eaf611ce4565b5b6000611ebe84828501611e85565b91505092915050565b600073ffffffffffffffffffffffffffffffffffffffff82169050919050565b6000611ef282611ec7565b9050919050565b611f0281611ee7565b82525050565b6000602082019050611f1d6000830184611ef9565b92915050565b611f2c81611ee7565b8114611f3757600080fd5b50565b600081359050611f4981611f23565b92915050565b60008060408385031215611f6657611f65611ce4565b5b6000611f7485828601611f3a565b9250506020611f8585828601611e85565b9150509250929050565b600080600060608486031215611fa857611fa7611ce4565b5b6000611fb686828701611f3a565b9350506020611fc786828701611f3a565b9250506040611fd886828701611e85565b9150509250925092565b611feb81611e64565b82525050565b60006020820190506120066000830184611fe2565b92915050565b60006020828403121561202257612021611ce4565b5b600061203084828501611f3a565b91505092915050565b61204281611d73565b811461204d57600080fd5b50565b60008135905061205f81612039565b92915050565b6000806040838503121561207c5761207b611ce4565b5b600061208a85828601611f3a565b925050602061209b85828601612050565b9150509250929050565b600080fd5b600080fd5b7f4e487b7100000000000000000000000000000000000000000000000000000000600052604160045260246000fd5b6120e782611df8565b810181811067ffffffffffffffff82111715612106576121056120af565b5b80604052505050565b6000612119611cda565b905061212582826120de565b919050565b600067ffffffffffffffff821115612145576121446120af565b5b61214e82611df8565b9050602081019050919050565b82818337600083830152505050565b600061217d6121788461212a565b61210f565b905082815260208101848484011115612199576121986120aa565b5b6121a484828561215b565b509392505050565b600082601f8301126121c1576121c06120a5565b5b81356121d184826020860161216a565b91505092915050565b600080600080608085870312156121f4576121f3611ce4565b5b600061220287828801611f3a565b945050602061221387828801611f3a565b935050604061222487828801611e85565b925050606085013567ffffffffffffffff81111561224557612244611ce9565b5b612251878288016121ac565b91505092959194509250565b600067ffffffffffffffff821115612278576122776120af565b5b61228182611df8565b9050602081019050919050565b60006122a161229c8461225d565b61210f565b9050828152602081018484840111156122bd576122bc6120aa565b5b6122c884828561215b565b509392505050565b600082601f8301126122e5576122e46120a5565b5b81356122f584826020860161228e565b91505092915050565b60006020828403121561231457612313611ce4565b5b600082013567ffffffffffffffff81111561233257612331611ce9565b5b61233e848285016122d0565b91505092915050565b6000806040838503121561235e5761235d611ce4565b5b600061236c85828601611f3a565b925050602061237d85828601611f3a565b9150509250929050565b7f4e487b7100000000000000000000000000000000000000000000000000000000600052602260045260246000fd5b600060028204905060018216806123ce57607f821691505b602082108114156123e2576123e1612387565b5b50919050565b7f4552433732313a20617070726f76616c20746f2063757272656e74206f776e6560008201527f7200000000000000000000000000000000000000000000000000000000000000602082015250565b6000612444602183611db4565b915061244f826123e8565b604082019050919050565b6000602082019050818103600083015261247381612437565b9050919050565b7f4552433732313a20617070726f76652063616c6c6572206973206e6f7420746f60008201527f6b656e206f776e6572206f7220617070726f76656420666f7220616c6c000000602082015250565b60006124d6603d83611db4565b91506124e18261247a565b604082019050919050565b60006020820190508181036000830152612505816124c9565b9050919050565b7f4552433732313a2063616c6c6572206973206e6f7420746f6b656e206f776e6560008201527f72206f7220617070726f76656400000000000000000000000000000000000000602082015250565b6000612568602d83611db4565b91506125738261250c565b604082019050919050565b600060208201905081810360008301526125978161255b565b9050919050565b7f4552433732313a20696e76616c696420746f6b656e2049440000000000000000600082015250565b60006125d4601883611db4565b91506125df8261259e565b602082019050919050565b60006020820190508181036000830152612603816125c7565b9050919050565b7f4552433732313a2061646472657373207a65726f206973206e6f74206120766160008201527f6c6964206f776e65720000000000000000000000000000000000000000000000602082015250565b6000612666602983611db4565b91506126718261260a565b604082019050919050565b6000602082019050818103600083015261269581612659565b9050919050565b600081905092915050565b60006126b282611da9565b6126bc818561269c565b93506126cc818560208601611dc5565b80840191505092915050565b60006126e482856126a7565b91506126f082846126a7565b91508190509392505050565b7f596f75206861766520746f20706179206d696e74206665650000000000000000600082015250565b6000612732601883611db4565b915061273d826126fc565b602082019050919050565b6000602082019050818103600083015261276181612725565b9050919050565b7f4552433732313a207472616e736665722066726f6d20696e636f72726563742060008201527f6f776e6572000000000000000000000000000000000000000000000000000000602082015250565b60006127c4602583611db4565b91506127cf82612768565b604082019050919050565b600060208201905081810360008301526127f3816127b7565b9050919050565b7f4552433732313a207472616e7366657220746f20746865207a65726f2061646460008201527f7265737300000000000000000000000000000000000000000000000000000000602082015250565b6000612856602483611db4565b9150612861826127fa565b604082019050919050565b6000602082019050818103600083015261288581612849565b9050919050565b7f4552433732313a20617070726f766520746f2063616c6c657200000000000000600082015250565b60006128c2601983611db4565b91506128cd8261288c565b602082019050919050565b600060208201905081810360008301526128f1816128b5565b9050919050565b7f4552433732313a207472616e7366657220746f206e6f6e20455243373231526560008201527f63656976657220696d706c656d656e7465720000000000000000000000000000602082015250565b6000612954603283611db4565b915061295f826128f8565b604082019050919050565b6000602082019050818103600083015261298381612947565b9050919050565b7f45524337323155524953746f726167653a2055524920736574206f66206e6f6e60008201527f6578697374656e7420746f6b656e000000000000000000000000000000000000602082015250565b60006129e6602e83611db4565b91506129f18261298a565b604082019050919050565b60006020820190508181036000830152612a15816129d9565b9050919050565b600081519050919050565b600082825260208201905092915050565b6000612a4382612a1c565b612a4d8185612a27565b9350612a5d818560208601611dc5565b612a6681611df8565b840191505092915050565b6000608082019050612a866000830187611ef9565b612a936020830186611ef9565b612aa06040830185611fe2565b8181036060830152612ab28184612a38565b905095945050505050565b600081519050612acc81611d1a565b92915050565b600060208284031215612ae857612ae7611ce4565b5b6000612af684828501612abd565b91505092915050565b7f4e487b7100000000000000000000000000000000000000000000000000000000600052601260045260246000fd5b7f4552433732313a206d696e7420746f20746865207a65726f2061646472657373600082015250565b6000612b64602083611db4565b9150612b6f82612b2e565b602082019050919050565b60006020820190508181036000830152612b9381612b57565b9050919050565b7f4552433732313a20746f6b656e20616c7265616479206d696e74656400000000600082015250565b6000612bd0601c83611db4565b9150612bdb82612b9a565b602082019050919050565b60006020820190508181036000830152612bff81612bc3565b905091905056fea26469706673582212202a1a8eda01d97b885aa8b6ed3b1108f224298e6e253cdd52ea2c18a262b457da64736f6c63430008090033",
  "immutableReferences": {
    "3711": [
      {
        "length": 32,
        "start": 2152
      },
      {
        "length": 32,
        "start": 2747
      }
    ]
  },
  "source": "// SPDX-License-Identifier: MIT\r\npragma solidity >=0.4.16 <0.9.0;\r\n\r\nimport \"@openzeppelin/contracts/token/ERC721/extensions/ERC721URIStorage.sol\";\r\nimport \"@openzeppelin/contracts/utils/Counters.sol\";\r\n\r\ncontract Collection is ERC721URIStorage {\r\n    using Counters for Counters.Counter;\r\n    Counters.Counter private _tokenIds;\r\n    uint internal immutable mintFee;\r\n\r\n    event NFTMinted(address indexed minter, uint tokenId);\r\n\r\n    constructor(uint _minttFee) ERC721(\"My NFT\", \"MNF\") {\r\n        mintFee = _minttFee;\r\n    }\r\n\r\n    modifier CheckMintFee() {\r\n        require(msg.value >= mintFee, \"You have to pay mint fee\");\r\n        _;\r\n    }\r\n\r\n    function mint(\r\n        string memory tokenURI\r\n    ) external payable CheckMintFee returns (uint) {\r\n        _tokenIds.increment();\r\n        uint tokenId = _tokenIds.current();\r\n\r\n        _safeMint(msg.sender, tokenId);\r\n        _setTokenURI(tokenId, tokenURI);\r\n        emit NFTMinted(msg.sender, tokenId);\r\n        return tokenId;\r\n    }\r\n\r\n    function getMintFee() public view returns (uint) {\r\n        return mintFee;\r\n    }\r\n\r\n    function getTokenCounter() public view returns (uint) {\r\n        return _tokenIds.current();\r\n    }\r\n\r\n    function approveNFT(address _market, uint _tokenId) external {\r\n        _approve(_market, _tokenId);\r\n    }\r\n}\r\n",
  "sourcePath": "C:\\Users\\mohammad.azamiandara\\Desktop\\Workspace\\NFTMarketPlace\\src\\NFTMarketPlace.SmartContracts\\contracts\\Collection.sol",
  "compiler": {
    "name": "solc",
    "version": "0.8.9+commit.e5eed63a.Emscripten.clang"
  },
  "schemaVersion": "3.4.3",
  "updatedAt": "2024-05-07T10:44:18.477Z",
  "networkType": "ethereum",
  "devdoc": {
    "kind": "dev",
    "methods": {
      "approve(address,uint256)": {
        "details": "See {IERC721-approve}."
      },
      "balanceOf(address)": {
        "details": "See {IERC721-balanceOf}."
      },
      "getApproved(uint256)": {
        "details": "See {IERC721-getApproved}."
      },
      "isApprovedForAll(address,address)": {
        "details": "See {IERC721-isApprovedForAll}."
      },
      "name()": {
        "details": "See {IERC721Metadata-name}."
      },
      "ownerOf(uint256)": {
        "details": "See {IERC721-ownerOf}."
      },
      "safeTransferFrom(address,address,uint256)": {
        "details": "See {IERC721-safeTransferFrom}."
      },
      "safeTransferFrom(address,address,uint256,bytes)": {
        "details": "See {IERC721-safeTransferFrom}."
      },
      "setApprovalForAll(address,bool)": {
        "details": "See {IERC721-setApprovalForAll}."
      },
      "supportsInterface(bytes4)": {
        "details": "See {IERC165-supportsInterface}"
      },
      "symbol()": {
        "details": "See {IERC721Metadata-symbol}."
      },
      "tokenURI(uint256)": {
        "details": "See {IERC721Metadata-tokenURI}."
      },
      "transferFrom(address,address,uint256)": {
        "details": "See {IERC721-transferFrom}."
      }
    },
    "version": 1
  },
  "userdoc": {
    "kind": "user",
    "methods": {},
    "version": 1
  }
}