{
  "contractName": "MarketPlace",
  "abi": [
    {
      "inputs": [
        {
          "internalType": "uint256",
          "name": "_feePercent",
          "type": "uint256"
        },
        {
          "internalType": "address",
          "name": "_feeAccount",
          "type": "address"
        }
      ],
      "stateMutability": "nonpayable",
      "type": "constructor"
    },
    {
      "anonymous": false,
      "inputs": [
        {
          "indexed": false,
          "internalType": "uint256",
          "name": "assetIndex",
          "type": "uint256"
        },
        {
          "indexed": true,
          "internalType": "address",
          "name": "nft",
          "type": "address"
        },
        {
          "indexed": false,
          "internalType": "uint256",
          "name": "tokenId",
          "type": "uint256"
        },
        {
          "indexed": false,
          "internalType": "uint256",
          "name": "price",
          "type": "uint256"
        },
        {
          "indexed": true,
          "internalType": "address",
          "name": "seller",
          "type": "address"
        },
        {
          "indexed": true,
          "internalType": "address",
          "name": "buyer",
          "type": "address"
        }
      ],
      "name": "Bought",
      "type": "event"
    },
    {
      "anonymous": false,
      "inputs": [
        {
          "indexed": false,
          "internalType": "uint256",
          "name": "assetIndex",
          "type": "uint256"
        },
        {
          "indexed": true,
          "internalType": "address",
          "name": "nft",
          "type": "address"
        },
        {
          "indexed": false,
          "internalType": "uint256",
          "name": "tokenId",
          "type": "uint256"
        },
        {
          "indexed": false,
          "internalType": "uint256",
          "name": "price",
          "type": "uint256"
        },
        {
          "indexed": true,
          "internalType": "address",
          "name": "seller",
          "type": "address"
        }
      ],
      "name": "Listed",
      "type": "event"
    },
    {
      "inputs": [],
      "name": "assetCount",
      "outputs": [
        {
          "internalType": "uint256",
          "name": "",
          "type": "uint256"
        }
      ],
      "stateMutability": "view",
      "type": "function",
      "constant": true
    },
    {
      "inputs": [],
      "name": "feePercent",
      "outputs": [
        {
          "internalType": "uint256",
          "name": "",
          "type": "uint256"
        }
      ],
      "stateMutability": "view",
      "type": "function",
      "constant": true
    },
    {
      "inputs": [
        {
          "internalType": "uint256",
          "name": "",
          "type": "uint256"
        }
      ],
      "name": "items",
      "outputs": [
        {
          "internalType": "uint256",
          "name": "itemIndex",
          "type": "uint256"
        },
        {
          "internalType": "contract IERC721",
          "name": "nft",
          "type": "address"
        },
        {
          "internalType": "uint256",
          "name": "tokenId",
          "type": "uint256"
        },
        {
          "internalType": "uint256",
          "name": "price",
          "type": "uint256"
        },
        {
          "internalType": "address payable",
          "name": "seller",
          "type": "address"
        },
        {
          "internalType": "bool",
          "name": "sold",
          "type": "bool"
        }
      ],
      "stateMutability": "view",
      "type": "function",
      "constant": true
    },
    {
      "inputs": [],
      "name": "lastIndex",
      "outputs": [
        {
          "internalType": "uint256",
          "name": "",
          "type": "uint256"
        }
      ],
      "stateMutability": "view",
      "type": "function",
      "constant": true
    },
    {
      "inputs": [
        {
          "internalType": "contract IERC721",
          "name": "_nft",
          "type": "address"
        },
        {
          "internalType": "uint256",
          "name": "_tokenId",
          "type": "uint256"
        },
        {
          "internalType": "uint256",
          "name": "_price",
          "type": "uint256"
        }
      ],
      "name": "list",
      "outputs": [],
      "stateMutability": "nonpayable",
      "type": "function"
    },
    {
      "inputs": [
        {
          "internalType": "uint256",
          "name": "_assetIndex",
          "type": "uint256"
        }
      ],
      "name": "purchase",
      "outputs": [],
      "stateMutability": "payable",
      "type": "function",
      "payable": true
    },
    {
      "inputs": [
        {
          "internalType": "uint256",
          "name": "_assetIndex",
          "type": "uint256"
        },
        {
          "internalType": "uint256",
          "name": "_newPrice",
          "type": "uint256"
        }
      ],
      "name": "editAssetPrice",
      "outputs": [],
      "stateMutability": "nonpayable",
      "type": "function"
    },
    {
      "inputs": [
        {
          "internalType": "uint256",
          "name": "_assetIndex",
          "type": "uint256"
        }
      ],
      "name": "unList",
      "outputs": [],
      "stateMutability": "nonpayable",
      "type": "function"
    },
    {
      "inputs": [
        {
          "internalType": "uint256",
          "name": "_assetIndex",
          "type": "uint256"
        }
      ],
      "name": "getTotalPrice",
      "outputs": [
        {
          "internalType": "uint256",
          "name": "",
          "type": "uint256"
        }
      ],
      "stateMutability": "view",
      "type": "function",
      "constant": true
    }
  ],
  "bytecode": "0x60c06040523480156200001157600080fd5b506040516200144538038062001445833981810160405281019062000037919062000128565b60016000819055508160a081815250508073ffffffffffffffffffffffffffffffffffffffff1660808173ffffffffffffffffffffffffffffffffffffffff168152505050506200016f565b600080fd5b6000819050919050565b6200009d8162000088565b8114620000a957600080fd5b50565b600081519050620000bd8162000092565b92915050565b600073ffffffffffffffffffffffffffffffffffffffff82169050919050565b6000620000f082620000c3565b9050919050565b6200010281620000e3565b81146200010e57600080fd5b50565b6000815190506200012281620000f7565b92915050565b6000806040838503121562000142576200014162000083565b5b60006200015285828601620000ac565b9250506020620001658582860162000111565b9150509250929050565b60805160a0516112a96200019c600039600081816103a9015261045a0152600061097b01526112a96000f3fe6080604052600436106100865760003560e01c8063ca7dd37511610059578063ca7dd3751461014a578063dda342bb14610187578063eafe7a74146101b0578063efef39a1146101db578063f3f6f0d7146101f757610086565b80630ff41c581461008b578063166cd2a8146100b45780637fd6f15c146100dd578063bfb231d214610108575b600080fd5b34801561009757600080fd5b506100b260048036038101906100ad9190610b67565b610222565b005b3480156100c057600080fd5b506100db60048036038101906100d69190610b94565b610388565b005b3480156100e957600080fd5b506100f26103a7565b6040516100ff9190610be3565b60405180910390f35b34801561011457600080fd5b5061012f600480360381019061012a9190610b67565b6103cb565b60405161014196959493929190610cb9565b60405180910390f35b34801561015657600080fd5b50610171600480360381019061016c9190610b67565b610454565b60405161017e9190610be3565b60405180910390f35b34801561019357600080fd5b506101ae60048036038101906101a99190610d6a565b6104b7565b005b3480156101bc57600080fd5b506101c561075b565b6040516101d29190610be3565b60405180910390f35b6101f560048036038101906101f09190610b67565b610761565b005b34801561020357600080fd5b5061020c610acc565b6040516102199190610be3565b60405180910390f35b6003600082815260200190815260200160002060010160009054906101000a900473ffffffffffffffffffffffffffffffffffffffff1673ffffffffffffffffffffffffffffffffffffffff166323b872dd303360036000868152602001908152602001600020600201546040518463ffffffff1660e01b81526004016102ab93929190610dcc565b600060405180830381600087803b1580156102c557600080fd5b505af11580156102d9573d6000803e3d6000fd5b50505050600360008281526020019081526020016000206000808201600090556001820160006101000a81549073ffffffffffffffffffffffffffffffffffffffff0219169055600282016000905560038201600090556004820160006101000a81549073ffffffffffffffffffffffffffffffffffffffff02191690556004820160146101000a81549060ff021916905550506001600081548092919061038090610e32565b919050555050565b8060036000848152602001908152602001600020600301819055505050565b7f000000000000000000000000000000000000000000000000000000000000000081565b60036020528060005260406000206000915090508060000154908060010160009054906101000a900473ffffffffffffffffffffffffffffffffffffffff16908060020154908060030154908060040160009054906101000a900473ffffffffffffffffffffffffffffffffffffffff16908060040160149054906101000a900460ff16905086565b600060647f000000000000000000000000000000000000000000000000000000000000000060646104859190610e5c565b60036000858152602001908152602001600020600301546104a69190610eb2565b6104b09190610f3b565b9050919050565b6104bf610ad2565b60008111610502576040517f08c379a00000000000000000000000000000000000000000000000000000000081526004016104f990610fc9565b60405180910390fd5b6001600081548092919061051590610fe9565b91905055506002600081548092919061052d90610fe9565b91905055508273ffffffffffffffffffffffffffffffffffffffff166323b872dd3330856040518463ffffffff1660e01b815260040161056f93929190610dcc565b600060405180830381600087803b15801561058957600080fd5b505af115801561059d573d6000803e3d6000fd5b505050506040518060c0016040528060025481526020018473ffffffffffffffffffffffffffffffffffffffff1681526020018381526020018281526020013373ffffffffffffffffffffffffffffffffffffffff168152602001600015158152506003600060025481526020019081526020016000206000820151816000015560208201518160010160006101000a81548173ffffffffffffffffffffffffffffffffffffffff021916908373ffffffffffffffffffffffffffffffffffffffff160217905550604082015181600201556060820151816003015560808201518160040160006101000a81548173ffffffffffffffffffffffffffffffffffffffff021916908373ffffffffffffffffffffffffffffffffffffffff16021790555060a08201518160040160146101000a81548160ff0219169083151502179055509050503373ffffffffffffffffffffffffffffffffffffffff168373ffffffffffffffffffffffffffffffffffffffff167f0d770f67a166dfb160ca3991c3a328328d7d3899464a55a6fa63448ceda49523600254858560405161074693929190611032565b60405180910390a3610756610b22565b505050565b60015481565b610769610ad2565b6000600360008381526020019081526020016000209050600061078b83610454565b905060008311801561079f57506002548311155b6107de576040517f08c379a00000000000000000000000000000000000000000000000000000000081526004016107d5906110b5565b60405180910390fd5b80341015610821576040517f08c379a000000000000000000000000000000000000000000000000000000000815260040161081890611147565b60405180910390fd5b8160040160149054906101000a900460ff1615610873576040517f08c379a000000000000000000000000000000000000000000000000000000000815260040161086a906111b3565b60405180910390fd5b8160010160009054906101000a900473ffffffffffffffffffffffffffffffffffffffff1673ffffffffffffffffffffffffffffffffffffffff166323b872dd303385600201546040518463ffffffff1660e01b81526004016108d893929190610dcc565b600060405180830381600087803b1580156108f257600080fd5b505af1158015610906573d6000803e3d6000fd5b505050508160040160009054906101000a900473ffffffffffffffffffffffffffffffffffffffff1673ffffffffffffffffffffffffffffffffffffffff166108fc83600301549081150290604051600060405180830381858888f19350505050158015610978573d6000803e3d6000fd5b507f000000000000000000000000000000000000000000000000000000000000000073ffffffffffffffffffffffffffffffffffffffff166108fc8360030154836109c391906111d3565b9081150290604051600060405180830381858888f193505050501580156109ee573d6000803e3d6000fd5b503373ffffffffffffffffffffffffffffffffffffffff168260040160009054906101000a900473ffffffffffffffffffffffffffffffffffffffff1673ffffffffffffffffffffffffffffffffffffffff168360010160009054906101000a900473ffffffffffffffffffffffffffffffffffffffff1673ffffffffffffffffffffffffffffffffffffffff167f8b4c9c8a607d67b321582dd8461041b1dc2ceeca70c8b7f37f8e02095cf2e76d8686600201548760030154604051610ab793929190611032565b60405180910390a45050610ac9610b22565b50565b60025481565b60026000541415610b18576040517f08c379a0000000000000000000000000000000000000000000000000000000008152600401610b0f90611253565b60405180910390fd5b6002600081905550565b6001600081905550565b600080fd5b6000819050919050565b610b4481610b31565b8114610b4f57600080fd5b50565b600081359050610b6181610b3b565b92915050565b600060208284031215610b7d57610b7c610b2c565b5b6000610b8b84828501610b52565b91505092915050565b60008060408385031215610bab57610baa610b2c565b5b6000610bb985828601610b52565b9250506020610bca85828601610b52565b9150509250929050565b610bdd81610b31565b82525050565b6000602082019050610bf86000830184610bd4565b92915050565b600073ffffffffffffffffffffffffffffffffffffffff82169050919050565b6000819050919050565b6000610c43610c3e610c3984610bfe565b610c1e565b610bfe565b9050919050565b6000610c5582610c28565b9050919050565b6000610c6782610c4a565b9050919050565b610c7781610c5c565b82525050565b6000610c8882610bfe565b9050919050565b610c9881610c7d565b82525050565b60008115159050919050565b610cb381610c9e565b82525050565b600060c082019050610cce6000830189610bd4565b610cdb6020830188610c6e565b610ce86040830187610bd4565b610cf56060830186610bd4565b610d026080830185610c8f565b610d0f60a0830184610caa565b979650505050505050565b6000610d2582610bfe565b9050919050565b6000610d3782610d1a565b9050919050565b610d4781610d2c565b8114610d5257600080fd5b50565b600081359050610d6481610d3e565b92915050565b600080600060608486031215610d8357610d82610b2c565b5b6000610d9186828701610d55565b9350506020610da286828701610b52565b9250506040610db386828701610b52565b9150509250925092565b610dc681610d1a565b82525050565b6000606082019050610de16000830186610dbd565b610dee6020830185610dbd565b610dfb6040830184610bd4565b949350505050565b7f4e487b7100000000000000000000000000000000000000000000000000000000600052601160045260246000fd5b6000610e3d82610b31565b91506000821415610e5157610e50610e03565b5b600182039050919050565b6000610e6782610b31565b9150610e7283610b31565b9250827fffffffffffffffffffffffffffffffffffffffffffffffffffffffffffffffff03821115610ea757610ea6610e03565b5b828201905092915050565b6000610ebd82610b31565b9150610ec883610b31565b9250817fffffffffffffffffffffffffffffffffffffffffffffffffffffffffffffffff0483118215151615610f0157610f00610e03565b5b828202905092915050565b7f4e487b7100000000000000000000000000000000000000000000000000000000600052601260045260246000fd5b6000610f4682610b31565b9150610f5183610b31565b925082610f6157610f60610f0c565b5b828204905092915050565b600082825260208201905092915050565b7f496e76616c696420507269636500000000000000000000000000000000000000600082015250565b6000610fb3600d83610f6c565b9150610fbe82610f7d565b602082019050919050565b60006020820190508181036000830152610fe281610fa6565b9050919050565b6000610ff482610b31565b91507fffffffffffffffffffffffffffffffffffffffffffffffffffffffffffffffff82141561102757611026610e03565b5b600182019050919050565b60006060820190506110476000830186610bd4565b6110546020830185610bd4565b6110616040830184610bd4565b949350505050565b7f617373657420646f65736e277420657869737400000000000000000000000000600082015250565b600061109f601383610f6c565b91506110aa82611069565b602082019050919050565b600060208201905081810360008301526110ce81611092565b9050919050565b7f6e6f7420656e6f7567682065746820746f20636f766572206974656d2070726960008201527f6365000000000000000000000000000000000000000000000000000000000000602082015250565b6000611131602283610f6c565b915061113c826110d5565b604082019050919050565b6000602082019050818103600083015261116081611124565b9050919050565b7f6974656d20616c726561647920736f6c64000000000000000000000000000000600082015250565b600061119d601183610f6c565b91506111a882611167565b602082019050919050565b600060208201905081810360008301526111cc81611190565b9050919050565b60006111de82610b31565b91506111e983610b31565b9250828210156111fc576111fb610e03565b5b828203905092915050565b7f5265656e7472616e637947756172643a207265656e7472616e742063616c6c00600082015250565b600061123d601f83610f6c565b915061124882611207565b602082019050919050565b6000602082019050818103600083015261126c81611230565b905091905056fea26469706673582212203bc7abc5e161b11dbabafd4253c1277f755b8cdfa585ca838199cd5ab917bb4b64736f6c63430008090033",
  "immutableReferences": {
    "4226": [
      {
        "length": 32,
        "start": 2427
      }
    ],
    "4228": [
      {
        "length": 32,
        "start": 937
      },
      {
        "length": 32,
        "start": 1114
      }
    ]
  },
  "source": "// SPDX-License-Identifier: MIT\r\npragma solidity >=0.4.16 <0.9.0;\r\nimport \"@openzeppelin/contracts/token/ERC721/IERC721.sol\";\r\nimport \"@openzeppelin/contracts/security/ReentrancyGuard.sol\";\r\n\r\ncontract MarketPlace is ReentrancyGuard {\r\n    address payable immutable feeAccount;\r\n    uint public immutable feePercent;\r\n    uint public assetCount;\r\n    uint public lastIndex;\r\n\r\n    struct Item {\r\n        uint itemIndex;\r\n        IERC721 nft;\r\n        uint tokenId;\r\n        uint price;\r\n        address payable seller;\r\n        bool sold;\r\n    }\r\n\r\n    mapping(uint => Item) public items;\r\n\r\n    event Listed(\r\n        uint assetIndex,\r\n        address indexed nft,\r\n        uint tokenId,\r\n        uint price,\r\n        address indexed seller\r\n    );\r\n\r\n    event Bought(\r\n        uint assetIndex,\r\n        address indexed nft,\r\n        uint tokenId,\r\n        uint price,\r\n        address indexed seller,\r\n        address indexed buyer\r\n    );\r\n\r\n    constructor(uint _feePercent, address _feeAccount) {\r\n        feePercent = _feePercent;\r\n        feeAccount = payable(_feeAccount);\r\n    }\r\n\r\n    function list(\r\n        IERC721 _nft,\r\n        uint _tokenId,\r\n        uint _price\r\n    ) external nonReentrant {\r\n        require(_price > 0, \"Invalid Price\");\r\n\r\n        assetCount++;\r\n        lastIndex++;\r\n        _nft.transferFrom(msg.sender, address(this), _tokenId);\r\n\r\n        items[lastIndex] = Item(\r\n            lastIndex,\r\n            _nft,\r\n            _tokenId,\r\n            _price,\r\n            payable(msg.sender),\r\n            false\r\n        );\r\n\r\n        emit Listed(lastIndex, address(_nft), _tokenId, _price, msg.sender);\r\n    }\r\n\r\n    function purchase(uint _assetIndex) external payable nonReentrant {\r\n        Item storage item = items[_assetIndex];\r\n        uint _totalPrice = getTotalPrice(_assetIndex);\r\n\r\n        require(\r\n            _assetIndex > 0 && _assetIndex <= lastIndex,\r\n            \"asset doesn't exist\"\r\n        );\r\n        require(msg.value >= _totalPrice, \"not enough eth to cover item price\");\r\n        require(!item.sold, \"item already sold\");\r\n\r\n        item.nft.transferFrom(address(this), msg.sender, item.tokenId);\r\n        item.seller.transfer(item.price);\r\n        feeAccount.transfer(_totalPrice - item.price);\r\n\r\n        emit Bought(\r\n            _assetIndex,\r\n            address(item.nft),\r\n            item.tokenId,\r\n            item.price,\r\n            item.seller,\r\n            msg.sender\r\n        );\r\n    }\r\n\r\n    function editAssetPrice(uint _assetIndex, uint _newPrice) external {\r\n        items[_assetIndex].price = _newPrice;\r\n    }\r\n\r\n    function unList(uint _assetIndex) external {\r\n        items[_assetIndex].nft.transferFrom(\r\n            address(this),\r\n            msg.sender,\r\n            items[_assetIndex].tokenId\r\n        );\r\n        delete items[_assetIndex];\r\n        assetCount--;\r\n    }\r\n\r\n    function getTotalPrice(uint _assetIndex) public view returns (uint) {\r\n        return (items[_assetIndex].price * (100 + feePercent)) / 100;\r\n    }\r\n}\r\n",
  "sourcePath": "C:\\Users\\mohammad.azamiandara\\Desktop\\Workspace\\NFTMarketPlace\\src\\NFTMarketPlace.SmartContracts\\contracts\\MarketPlace.sol",
  "compiler": {
    "name": "solc",
    "version": "0.8.9+commit.e5eed63a.Emscripten.clang"
  },
  "schemaVersion": "3.4.3",
  "updatedAt": "2024-05-07T10:44:18.487Z",
  "networkType": "ethereum",
  "devdoc": {
    "kind": "dev",
    "methods": {},
    "version": 1
  },
  "userdoc": {
    "kind": "user",
    "methods": {},
    "version": 1
  }
}